{
  "contractName": "AnomalyLog",
  "abi": [
    {
      "inputs": [
        {
          "internalType": "uint256",
          "name": "",
          "type": "uint256"
        }
      ],
      "name": "anomalies",
      "outputs": [
        {
          "internalType": "string",
          "name": "meterId",
          "type": "string"
        },
        {
          "internalType": "string",
          "name": "anomalyType",
          "type": "string"
        },
        {
          "internalType": "uint256",
          "name": "timestamp",
          "type": "uint256"
        }
      ],
      "stateMutability": "view",
      "type": "function",
      "constant": true
    },
    {
      "inputs": [
        {
          "internalType": "string",
          "name": "_meterId",
          "type": "string"
        },
        {
          "internalType": "string",
          "name": "_type",
          "type": "string"
        }
      ],
      "name": "storeAnomaly",
      "outputs": [],
      "stateMutability": "nonpayable",
      "type": "function"
    },
    {
      "inputs": [],
      "name": "getCount",
      "outputs": [
        {
          "internalType": "uint256",
          "name": "",
          "type": "uint256"
        }
      ],
      "stateMutability": "view",
      "type": "function",
      "constant": true
    }
  ],
  "bytecode": "0x608060405234801561001057600080fd5b506106ac806100206000396000f3fe608060405234801561001057600080fd5b50600436106100415760003560e01c806301c19a5a146100465780631aa6730f14610062578063a87d942c14610094575b600080fd5b610060600480360381019061005b91906103b8565b6100b2565b005b61007c60048036038101906100779190610424565b610142565b60405161008b93929190610495565b60405180910390f35b61009c61028c565b6040516100a991906104da565b60405180910390f35b600060405180606001604052808481526020018381526020014281525090806001815401808255809150506001900390600052602060002090600302016000909190919091506000820151816000019080519060200190610114929190610298565b506020820151816001019080519060200190610131929190610298565b506040820151816002015550505050565b6000818154811061015257600080fd5b9060005260206000209060030201600091509050806000018054610175906105be565b80601f01602080910402602001604051908101604052809291908181526020018280546101a1906105be565b80156101ee5780601f106101c3576101008083540402835291602001916101ee565b820191906000526020600020905b8154815290600101906020018083116101d157829003601f168201915b505050505090806001018054610203906105be565b80601f016020809104026020016040519081016040528092919081815260200182805461022f906105be565b801561027c5780601f106102515761010080835404028352916020019161027c565b820191906000526020600020905b81548152906001019060200180831161025f57829003601f168201915b5050505050908060020154905083565b60008080549050905090565b8280546102a4906105be565b90600052602060002090601f0160209004810192826102c6576000855561030d565b82601f106102df57805160ff191683800117855561030d565b8280016001018555821561030d579182015b8281111561030c5782518255916020019190600101906102f1565b5b50905061031a919061031e565b5090565b5b8082111561033757600081600090555060010161031f565b5090565b600061034e61034984610526565b6104f5565b90508281526020810184848401111561036657600080fd5b61037184828561057c565b509392505050565b600082601f83011261038a57600080fd5b813561039a84826020860161033b565b91505092915050565b6000813590506103b28161065f565b92915050565b600080604083850312156103cb57600080fd5b600083013567ffffffffffffffff8111156103e557600080fd5b6103f185828601610379565b925050602083013567ffffffffffffffff81111561040e57600080fd5b61041a85828601610379565b9150509250929050565b60006020828403121561043657600080fd5b6000610444848285016103a3565b91505092915050565b600061045882610556565b6104628185610561565b935061047281856020860161058b565b61047b8161064e565b840191505092915050565b61048f81610572565b82525050565b600060608201905081810360008301526104af818661044d565b905081810360208301526104c3818561044d565b90506104d26040830184610486565b949350505050565b60006020820190506104ef6000830184610486565b92915050565b6000604051905081810181811067ffffffffffffffff8211171561051c5761051b61061f565b5b8060405250919050565b600067ffffffffffffffff8211156105415761054061061f565b5b601f19601f8301169050602081019050919050565b600081519050919050565b600082825260208201905092915050565b6000819050919050565b82818337600083830152505050565b60005b838110156105a957808201518184015260208101905061058e565b838111156105b8576000848401525b50505050565b600060028204905060018216806105d657607f821691505b602082108114156105ea576105e96105f0565b5b50919050565b7f4e487b7100000000000000000000000000000000000000000000000000000000600052602260045260246000fd5b7f4e487b7100000000000000000000000000000000000000000000000000000000600052604160045260246000fd5b6000601f19601f8301169050919050565b61066881610572565b811461067357600080fd5b5056fea264697066735822122032a183b75b961b7aef949af599b252b86ed21c9b99b92c9de0bee8a2cbb2bd9164736f6c63430008000033",
  "immutableReferences": {},
  "source": "// SPDX-License-Identifier: MIT\r\npragma solidity ^0.8.0;\r\n\r\ncontract AnomalyLog {\r\n\r\n    struct Anomaly {\r\n        string meterId;\r\n        string anomalyType;\r\n        uint timestamp;\r\n    }\r\n\r\n    Anomaly[] public anomalies;\r\n\r\n    function storeAnomaly(string memory _meterId, string memory _type) public {\r\n        anomalies.push(Anomaly(_meterId, _type, block.timestamp));\r\n    }\r\n\r\n    function getCount() public view returns (uint) {\r\n        return anomalies.length;\r\n    }\r\n}\r\n",
  "sourcePath": "E:\\8th sem project\\contracts\\Anomalylog.sol",
  "compiler": {
    "name": "solc",
    "version": "0.8.0+commit.c7dfd78e.Emscripten.clang"
  },
  "schemaVersion": "3.4.16",
  "updatedAt": "2026-02-05T13:50:59.450Z",
  "networkType": "ethereum",
  "devdoc": {
    "kind": "dev",
    "methods": {},
    "version": 1
  },
  "userdoc": {
    "kind": "user",
    "methods": {},
    "version": 1
  }
}